:040000008A11F02F42
:100D42000C3428340C3483160313141C0800A42E0C
:100D52001030F9000230FA008A11E02608008A11E8
:100D62008C278A118A11A9268A11B62E0130F00029
:100D720083120313060EF100710C0139013EC32EDA
:100D82000310F00DFF3E031DC12E7008F200720821
:100D9200860408000130F00083120313060EF100EE
:100DA200710C0139013ED72E0310F00DFF3E031DD9
:100DB200D52E7008FF3AF2007208860508008A11E3
:100DC200CB268A117A08F101F1077908F001F007C0
:100DD200F201F20A8A11F8268A1183120313130808
:100DE200FB007B08FC008A11B7267C080800F20889
:100DF200031D082F7108F4007008F3000310F30DAF
:100E0200F40D00307304F700083074041A2F7108CF
:100E1200F4007008F3000310F30DF40D00307305B5
:100E2200F50008307405F60001307504F700003053
:100E32007604F80078088312031393008A11A4261B
:100E42008A1177088312031393008A11A4260800DB
:100E52000130F00083120313060E0139013E332FD5
:100E62000310F00DFF3E031D312F7008FF3AF10011
:100E72000130F200060CF300730C0139013E432FDE
:100E82000310F20DFF3E031D412F7208FF3AF400DA
:100E92000130F500060EF600760C0139013E532FA3
:100EA2000310F50DFF3E031D512F7508FF3A74051F
:100EB2007105F70077088316031386050130F000E9
:100EC20083120313060C0139013E692F0310F00D42
:100ED200FF3E031D672F7008F1007108831603138C
:100EE20086040130F00083120313060EF100710C28
:100EF2000139013E7E2F0310F00DFF3E031D7C2FB2
:100F02007008F200720886049416141483160313F0
:100F12009417141308000130F80083120313060C0F
:100F2200F900F90C790C0139013E992F0310F80DE3
:100F3200FF3E031D972F0130FA00060EFB00FB0C4B
:100F42007B0C0139013EA72F0310FA0DFF3E031D52
:100F5200A52F7A087804FC007C0883160313860404
:100F62000130F80083120313060EF900F90C790C14
:100F72000139013EBE2F0310F80DFF3E031DBC2FA9
:100F82007808FA007A088604D02F0310F80DFF3E85
:100F9200031DC62F7808FF3AFA007A088605013049
:100FA200F800060CF900F90C790C0139013EDB2F2F
:100FB2000310F80DFF3E031DD92F7808FA007A08B6
:100FC2008604ED2F0310F80DFF3E031DE32F780872
:100FD200FF3AFA007A0886058A1129270800831247
:100FE20003138A11A2268A11A0008A11A3268A114C
:0E0FF200A1008A11A126FD0083018A11B02EF4
:00000001FF
