:040000008A11E82F4A
:100B420083160313141C0800A12D01340334283426
:100B52000C340C348A11D3258A11FF308A11C12535
:100B620008001030F9000230FA008A1158260800F5
:100B720000308A114E278A118A11B2258A11C02D9E
:100B8200FB007B08FA007A08F80032308A11F1255E
:100B92000800FB007B08FA007A08F8003F308A114F
:100BA200F1250800113083120313A0000230A100C6
:100BB200A201A20AA3018A111227080083120313B9
:100BC200A5000030F9000230FA0025082904A4002B
:100BD2002408FB008A1141268A118A117026080016
:100BE200F9008A112C268A11F00179088A118926C6
:100BF2008A1178088312031393008A11A1258A119E
:100C02008A11042608000130F00083120313060E35
:100C1200F100710C0139013E102E0310F00DFF3E60
:100C2200031D0E2E7008F200720886040800F900F7
:100C32008A112C268A11F001F00A79088A11892674
:100C42008A11831203131308F8007808FA008A1134
:100C520004267A0808000130F00083120313060EFE
:100C6200F100710C0139013E382E0310F00DFF3EE8
:100C7200031D362E7008FF3AF2007208860508003E
:100C82008A112C268A117A08F101F1077908F001FC
:100C9200F007F2018A11AE268A117B088312031330
:100CA20093008A11A1258A118A11042608008A114B
:100CB2002C268A117A08F101F1077908F001F00770
:100CC200F201F20A8A11AE268A1183120313130863
:100CD200FB007B08FC008A1104267C080800023015
:100CE200FD007D08FB00FC01FC0A36308A11DF267C
:100CF2008A110230FD007D08FB00FC0136308A11AA
:100D0200DF268A117F30FD00FD0B852E882E08001C
:100D1200F700F008031D972E7708F10071077E395E
:100D2200F200F3017208F4007308A22E7708F100B2
:100D3200F2010310F10DF20D01307104F4000030E4
:100D42007204F5007408F1007108F6007608831247
:100D5200031393008A11A1250800F208031DBE2E79
:100D62007108F4007008F3000310F30DF40D003065
:100D72007304F70008307404D02E7108F400700870
:100D8200F3000310F30DF40D00307305F500083085
:100D92007405F60001307504F70000307604F8009F
:100DA20078088312031393008A11A1258A11770808
:100DB2008312031393008A11A125080083120313DF
:100DC200A30023088A1118268A1183120313A00094
:100DD2002008A2007C080319FC2E0130A0007B0A27
:100DE200F42E0310A00DFF3E031DF22E2008A100D9
:100DF2002108A2040A2F0130A0007B0A022F03104F
:100E0200A00DFF3E031D002F2008FF3AA10021087C
:100E1200A2052208A0002008F80023088A11F12563
:100E22000800831203132108FA01FA072008F901C6
:100E3200F9078A1158268A1183120313A400240881
:100E4200FD0023080319332F0130A400220A2B2F9F
:100E52000310A40DFF3E031D292F2408A500250819
:100E6200FD04412F0130A400220A392F0310A40DE2
:100E7200FF3E031D372F2408FF3AA5002508FD0574
:100E82002108FA01FA072008F901F9077D08A400F0
:100E92002408FB008A114126080083120313A700CD
:100EA2000730A6002608F8002A308A11F1258A1197
:100EB200B03083120313A6002608F80018308A11F6
:100EC200F1258A11953083120313A6002608F80033
:100ED2002E308A11F1258A110030F9000230FA0011
:100EE200033083120313A6002608FB008A11412651
:100EF2008A110130F9000230FA00FB01FB0A8A1163
:100F020041268A110230F9000230FA008030831241
:100F12000313A6002608FB008A1141268A11063017
:100F2200F9000230FA00903083120313A60026085B
:100F3200FB008A1141268A110730F9000230FA00BB
:100F4200803083120313A6002608FB008A11412673
:100F52008A110830F9000230FA00103083120313AC
:100F6200A6002608FB008A1141268A112030F900CA
:100F72000230FA00213083120313A6002608FB0078
:100F82008A1141268A1183120313A808031DDF2F39
:100F92008030A6002608F8003A308A11F1258A111D
:100FA20060308A11CA258A11403083120313A600C9
:100FB2002608F8003E308A11F1258A118A11AB25E4
:100FC2008A118312031327088A11DF25080083126E
:100FD20003138A11A6258A11A8008A11A7258A114E
:100FE200A9008A11A8258A11AA008A11A9258A11A5
:0E0FF200AB008A11AA25AC0083018A11B92D2B
:00000001FF
