:100000008A11F22F00308A000408840A8207003423
:10001000613464346434723420343C3420343034F9
:1000200078343334383446340034633468346934D3
:10003000703468346534723420343C3420343834BD
:100040000034613464346434723420343C342034F9
:10005000303478343334463400344D3452344634FA
:10006000323434344A34343430342E34633400344B
:100F440028340C340C3483160313141C0800A52F06
:100F5400CB30F000700883160313860586148312C1
:100F64000313861694161414831603139417141378
:100F740008008A11AA278A113330F6000330F700DB
:100F84005730F1007108F5007708F2007608F10097
:100F94000310F10DF20D00307104F80008307204F2
:100FA400F90079088312031393008A11A5278A1183
:100FB40078088312031393008A11A5278A117508F0
:100FC4008312031393008A11A5278A110330F200B8
:100FD4009730F100F10BEC2FF20BEC2FF12FE82FEF
:100FE4008A11A2278A11FA008A11A3278A11FB0009
:0C0FF4008A11A427FC0083018A11BB2F86
:00000001FF
